:020000040800F2
:100000001805002005010008A3140008E5130008E6
:10001000A1140008710100089D16000800000000EE
:10002000000000000000000000000000DD150008D6
:100030007301000800000000A5140008DF15000887
:100040001F0100081F0100081F0100081F01000810
:100050001F0100081F0100081F0100081F01000800
:100060001F0100081F0100081F0100081F010008F0
:100070001F0100081F0100081F0100081F010008E0
:100080001F0100081F0100081F0100081F010008D0
:100090001F0100081F0100081F0100081F010008C0
:1000A0001F0100081F0100081F0100081F010008B0
:1000B000251600081F0100081F0100081F01000885
:1000C0001F0100081F0100081F0100081F01000890
:1000D0001F0100081F0100081F0100081F01000880
:1000E0001F0100081F0100081F010008DFF810D0E1
:1000F00000F02CF800480047DD160008AFF3008040
:10010000180500200648804706480047FEE7FEE73E
:10011000FEE7FEE7FEE7FEE7FEE7FEE7FEE7FEE7B7
:1001200023160008ED000008D2B201E000F8012B10
:10013000491EFBD270470022F6E710B513460A4667
:1001400004461946FFF7F0FF204610BD064C074D48
:1001500006E0E06840F0010394E807009847103497
:10016000AC42F6D3FFF7C6FF30180008501800085D
:10017000FEE7704770B5044600F004F90546601CC0
:1001800002D004480078044400F0FCF8401BA04270
:10019000FAD370BD100000202DE9F84FDFF8B891B8
:1001A000002409F1040A0AF1040B23460F270BF17E
:1001B000040EC9E00125A5402A40AA427DD1674E20
:1001C000D1F804C0ACEB0608B44532D014DCBCF165
:1001D000030F3AD009DCBCF1000F2AD0BCF1010FAB
:1001E0001CD0BCF1020F31D11DE0BCF1110F17D0B2
:1001F000BCF1120F2AD119E0B8F5881F19D006DC1E
:10020000B8F5803F15D0B8F5801F1FD111E0B8F5C3
:10021000001F0ED0B8F5041F18D10AE0CB6815E016
:10022000CB681B1D12E0CB6808330FE0CB680C33A2
:100230000CE08B682BB1012B4FF0080303D0456114
:1002400004E0042302E0056100E00023FF2A01D856
:10025000064601E000F104064FEA840501D9A5F144
:100260002005D6F8008007FA05FC28EA0C0803FAF6
:1002700005F548EA0508C6F800804D68ED0062D52E
:10028000374DAE6946F00106AE61AD6924F0030654
:1002900005F001050095334D06EB050CDCF8085020
:1002A000A607360F07FA06F825EA0805DFF8B88032
:1002B000404503D14FF0000817E044E0DFF8AC8080
:1002C000404502D14FF001080FE0DFF8A48040451F
:1002D00002D14FF0020808E0DFF89880404502D1D3
:1002E0004FF0030801E04FF0040808FA06F848EA66
:1002F0000508CCF808804D68D9F80060ED034D463C
:1003000001D5164300E096432E604D68DAF8006090
:10031000AD03554601D5164300E096432E604D6867
:10032000DBF80060ED025D4601D5164300E0964320
:100330002E604D68DEF80060AD02754601D51643AB
:1003400000E096432E60641C0D682A46E5407FF469
:1003500031AFBDE8F88F000000040140000011102B
:10036000001002400000014000080140000C014064
:1003700000100140001401400AB1016170470904F6
:10038000FBE7000001488068704700001000002073
:1003900070B5040025D094F83D00002520B984F8FC
:1003A0003C50204600F0B8F8242084F83D00206836
:1003B000016821F0010101602068016841F40041F9
:1003C00001602068016821F40041016000F038FA02
:1003D0004D4A6168914201D84C4900E04C4988423D
:1003E00001D2012070BD4B492368B0FBF1F15E687A
:1003F00026F03F060E435E606368934206D94FF4D1
:10040000967359434FF47A73B1FBF3F12368491C97
:100410001E6A26F03F06314319626168914210D886
:100420004900401EB0FBF1F2521CC2F30B02042A39
:1004300001D2042022E0B0FBF1F0401CC0F30B001D
:100440001CE0A268F2B301EBC10303EB0116431EEB
:10045000B3FBF6F35B1C43F480431B0549D092B316
:1004600001EBC10202EB0111401EB0FBF1F0401C98
:10047000C0F30B0040F4804040F400402168CA699A
:100480004CF6FF739A431043C861D4E90710014347
:100490002068026822F0C00211430160D4E9030120
:1004A00001432068826848F2FF339A431143816018
:1004B000D4E9050108432168CA6822F0FF0210430D
:1004C000C86001E00EE016E02068016841F001011B
:1004D00001602564202084F83D00256384F83E50A7
:1004E000002070BD01EB4106431EB3FBF6F35B1C1D
:1004F000B3E70120C2E701EB4101401EB0FBF1F080
:10050000401CC0F30B00B7E7A086010080841E00EA
:1005100000093D0040420F0010B586B00021009157
:1005200001910291039100680F4988421AD10F4C42
:10053000A06940F00800A061A069694600F00800C9
:100540000490C020009012200190032003900848DE
:10055000FFF722FEE06940F40010E061E06900F47A
:100560000010049006B010BD00540040001002407E
:10057000000C014002488168027811448160704794
:1005800010000020074810B5016841F0100101601B
:10059000032000F08DF8002000F006F800F03CF891
:1005A000002010BD0020024000B5014687B00022A7
:1005B0001C2000F05DF81C2000F04CF81348C169C5
:1005C00041F00101C161C06905A900F00100069078
:1005D000684600F015F900F033F90D494FF08042FC
:1005E000B0FBF1F10B48491E0260416040F2E73276
:1005F0000021C0E90321816000F0DBFD10B1012082
:1006000007B000BD034800F003FEF9E70010024008
:1006100040420F00CC0000200C4808B5816941F031
:1006200001018161816901F001010091C16941F01D
:100630008051C161C06900F0805000900448416859
:1006400021F0E06141F00071416008BD00100240FE
:1006500000000140002809DB00F01F020121914049
:100660004009800000F1E020C0F800117047000050
:10067000F0B40E4B1B680C46C3F30223C3F107050D
:10068000042D00D90425191D072901D2002300E0FB
:10069000DB1E012606FA05F1491E214099409E40C5
:1006A000761E16403143F0BC00F0F9BF0CED00E0BF
:1006B000064900F0070208684FF6FF03184040EAB9
:1006C0000220034A10430860704700000CED00E070
:1006D0000000FA052DE9F0470F46050061D0434EB2
:1006E000306800F00700B84209D2306820F00700F7
:1006F00038433060306800F00700B84251D12868B4
:100700003B4C810712D5400703D5606840F4E06098
:1007100060602878000703D5606840F4605060602E
:100720006068A96820F0F000084360602878C0077E
:1007300028D06868012810D02168022810D08907C5
:1007400000292EDA616821F0030101436160FFF79F
:1007500019FE804641F288390DE021688903EFE7F0
:100760008901EDE7FFF70EFEA0EB0801494502D92C
:100770000320BDE8F0876068696800F00C00B0EB0A
:10078000810FEFD1306800F00700B8420BD9306814
:1007900020F0070038433060306800F00700B842AE
:1007A00001D00120E5E72878400705D56068E968B1
:1007B00020F4E060084360602878000706D5606890
:1007C000296920F4605040EAC100606000F048F8F8
:1007D0006168084AC1F30311515CC84006490860CA
:1007E00006480068FFF7E0FE0020C2E70020024054
:1007F00000100240161800081C0000201400002001
:100800000F2202600C4A536803F0030343605368ED
:1008100003F0F0038360536803F4E063C36052683D
:100820004FF4E06303EAD20202610448006800F07A
:1008300007000860704700000010024000200240DE
:100840000448054900684968044AC1F30221515C23
:10085000C84070471C000020001002402618000805
:1008600012A185B00FC98DE80F0014A0144A0068CA
:1008700004905168134801F00C03042B10D0082B8E
:100880000ED1C1F38343C9031DF803000AD5516893
:1008900004AAC1F34041515C0A4A5043B0FBF1F055
:1008A00005B0704708494843FAE700000203040511
:1008B000060708090A0B0C0D0E0F101001020000AC
:1008C0000010024000127A0000093D002DE9F84FA7
:1008D000040070D02078C04DC00749D06868C0F3CC
:1008E0008100012807D06868C0F38100022809D17F
:1008F0006868C00306D52868800339D56068002879
:10090000E7D035E06068B0F5803F0BD010B1B0F5AE
:10091000A02F11D0286820F480302860286820F4A7
:10092000802002E0286840F480302860606890B140
:10093000FFF728FD06460AE0286840F4802028607A
:10094000F0E700BFFFF71EFD801B642873D82868FE
:100950008003F7D50CE0FFF715FD064605E000BF64
:10096000FFF710FD801B6428F0D828688003F7D4B7
:1009700020789A4E80074FF001094FF0000839D5D2
:10098000686810F00C0F07D06868C0F38100022877
:1009900009D16868C00306D42868800714D5206987
:1009A000012808D110E02069B0B1C6F80090FFF727
:1009B000E9FC074605E00AE1FFF7E4FCC01B02285A
:1009C000C4D828688007F7D52868616920F0F80046
:1009D00040EAC10028600DE0C6F80080FFF7D2FCB5
:1009E000074604E0FFF7CEFCC01B022823D8286886
:1009F0008007F7D4207800072CD57948A169D9B1B0
:100A0000C0F80090FFF7BEFC074604E0FFF7BAFC11
:100A1000C01B02280FD8686A8007F7D571484FF4C9
:100A2000FA510068B0FBF1F0009000BF0098411E41
:100A30000091FAD20EE080E0C0F80080FFF7A2FC3F
:100A4000074604E0FFF79EFCC01B022875D8686AC1
:100A50008007F7D42078400760D5E8690027C000F8
:100A600008D4E86940F08050E861E869012700F0A7
:100A7000805000905C480168C90513D40168834622
:100A800041F480710160FFF77DFC824606E000BF03
:100A9000FFF778FCA0EB0A0064284ED8DBF80000D2
:100AA000C005F5D5E06801280AD008B1052813D0A3
:100AB000286A20F001002862286A20F0040002E081
:100AC000286A40F001002862E06841F2883B98B152
:100AD000FFF758FC82460BE0286A40F004002862C9
:100AE000EEE700BFFFF74EFCA0EB0A0159455AD8CC
:100AF000286A8007F6D50CE0FFF744FC824605E043
:100B0000FFF740FCA0EB0A0159454CD8286A800742
:100B1000F6D41FB1E86920F08050E861E06988B33D
:100B20006968C1F38101022944D00228C6F86080B7
:100B300004D0FFF727FC044638E034E0FFF722FC3E
:100B4000074604E0FFF71EFCC01B02282BD82868CC
:100B50008001F7D4206AB0F5803F05D16868A168AC
:100B600020F4003008436860D4E90801084369684C
:100B700021F4741108436860C6F86090FFF702FC26
:100B8000044606E025E000BFFFF7FCFB001B02283F
:100B900009D828688001F7D51BE000BFFFF7F2FBFA
:100BA000001B022802D90320BDE8F88F28688001C5
:100BB000F4D40EE00128F7D06868226A00F480318E
:100BC000914204D1616A00F47010884201D0012082
:100BD000EAE70020E8E7000000100240000042427F
:100BE000800442421C0000200070004070B50400E8
:100BF00009D0606A002540B125616561A56294F85D
:100C0000510040B10CE0012070BD6068B0F5827FFA
:100C1000F4D0E561F2E784F85050204600F040F847
:100C2000022084F851002068016821F04001016031
:100C3000A088218900F4827001F404410843A1894D
:100C400001F400610843217C01F002010843217D89
:100C500001F001010843218B01F400710843217F59
:100C600001F03801084394F8201001F08001084396
:100C7000218D01F40051084321680860A069042116
:100C800001EA1040216848602068C16921F40061D0
:100C9000C1616565012084F85100002070BD00002D
:100CA00010B586B000210091019102910391006876
:100CB0001349884221D11348816941F480518161EF
:100CC000816901F480510491816941F004018161DD
:100CD00080690D4C00F004000490B020009069463B
:100CE0002046FFF759FA402000900220019003208F
:100CF000039069462046FFF74FFA06B010BD00008A
:100D00000030014000100240000801402DE9F84F7A
:100D1000044640680025984616460F464FF0040BDF
:100D2000B0F5827F01D1A06888B194F85000012805
:100D300018D0012084F85000FFF724FB814694F876
:100D400051004FF0000A01280ED0022582E084F8FD
:100D500051B013460A462046CDF8008000F036F91F
:100D6000BDE8F88F0220FBE7002F72D0002E70D074
:100D700084F851B0C4F854A0A763A687E687C4F8E6
:100D800030A0A4F834A0A4F836A0C4F840A0C4F859
:100D900044A0A068B0F5004F09D12068016821F097
:100DA000400101602068016821F4804101602068F1
:100DB0000168490603D4016841F040010160E06820
:100DC000D8B139E020688168C90709D0007BA16BE0
:100DD0000870A06B401CA063E08F401EE0870CE011
:100DE000FFF7D0FAA0EB0901414503D3B8F1FF3F6B
:100DF00003D036E0B8F1000F33D0E08F0028E1D106
:100E00001DE020688168C90709D0C068A16B08800F
:100E1000A06B801CA063E08F401EE0870CE0FFF712
:100E2000B1FAA0EB0901414503D3B8F1FF3F03D06C
:100E300017E0B8F1000F14D0E08F0028E1D14A4646
:100E40004146204600F02FFB08B120206065606D10
:100E500000B10125012084F8510084F850A02846F3
:100E60007EE70325F6E72DE9F84F044690F8500099
:100E700000271D461646894601280DD04FF0010B6C
:100E800084F850B0FFF77EFA804694F85100BA46D5
:100E9000012804D0022793E00220BDE8F88FB9F1C1
:100EA000000F73D0002E71D0032084F85100C4F8D5
:100EB00054A0C4F83090A686E686C4F838A0A4F8FA
:100EC0003CA0A4F83EA0C4F844A0C4F840A0A06888
:100ED000B0F5004F09D12068016821F040010160A0
:100EE0002068016841F4804101602068016849067A
:100EF00003D4016841F040010160E068B0F5006F83
:100F0000606803D030B3012E24D041E008B1012E37
:100F10001CD1206B21680088C86006E020688168C9
:100F2000890709D5216B0988C160206B801C20636B
:100F3000E08E401EE08609E0FFF724FAA0EB0800EF
:100F4000A84202D3681C01D031E07DB3E08E0028B6
:100F5000E4D120E0206B21680078087306E0206867
:100F60008168890709D5216B09780173206B401CC2
:100F70002063E08E401EE0860AE0FFF703FAA0EB54
:100F80000800A84203D3681C02D010E017E06DB13E
:100F9000E08E0028E3D142462946204600F0B1FA0F
:100FA00008B120206065A06818B106E0FFE70327BC
:100FB00006E02068C16880680090606D00B101277C
:100FC00084F851B084F850A0384666E72DE9F84F10
:100FD000044690F8500000270A9E1D4692468B4614
:100FE0004FF0010901280ED0012084F85000FFF7CE
:100FF000C9F9804694F85100616801280CD0B1F518
:10100000827F07D102E00220BDE8F88FA16809B90C
:10101000042801D00227C2E0BBF1000F27D0BAF1AB
:10102000000F24D01DB394F85100042802D00520ED
:1010300084F8510000206065C4F838A0E587A587D2
:10104000C4F830B0E586A586206460642068016835
:10105000490603D4016841F040010160E068B0F541
:10106000006F606805D0E8B3012D46D07FE001270E
:1010700095E008B1012D39D1206B21680088C86046
:10108000206B801C2063E08E401EE0862EE02068EE
:10109000816889070FD5E18E69B1B9F1010F0AD1D5
:1010A000216B0988C160206B801C2063E08E401E8C
:1010B000E0864FF0000920688168C9070CD0E18FF5
:1010C00051B1C068A16B0880A06B801CA063E08F49
:1010D000401EE0874FF00109FFF754F9A0EB08002C
:1010E000B04200E009E001D3701C50D1E08E00282E
:1010F000CDD1E08F0028CAD13FE0206B2168007875
:101100000873206B401C2063E08E401EE0862EE0BA
:101110002068816889070FD5E18E69B1B9F1010FA7
:101120000AD1216B09780173206B401C2063E08E8B
:10113000401EE0864FF0000920688168C9070CD086
:10114000E18F51B1C068A16B0870A06B401CA06317
:10115000E08F401EE0874FF00109FFF713F9A0EB85
:101160000800B04202D3701C01D010E07EB1E08EC6
:101170000028CDD1E08F0028CAD142463146204612
:1011800000F0BFF928B101272020606507E00327A0
:1011900005E0A06818B92068C16880680090012047
:1011A00084F85100002084F8500038462CE770473E
:1011B000704710B5040003D094F83D0010B107E06B
:1011C000012010BD002084F83C00204600F01EF8ED
:1011D000022084F83D00211D206800F029FA01203A
:1011E00084F8460084F83E0084F83F0084F840000C
:1011F00084F8410084F8420084F8430084F84400F5
:1012000084F8450084F83D00002010BD70470000C0
:1012100090F83D10012901D001207047022180F88B
:101220003D100168CA6842F00102CA6000680B49BB
:10123000884208D0B0F1804F05D00949884202D0D9
:101240000849884204D1816801F00701062903D0CA
:10125000016841F00101016000207047002C01404D
:101260000004004000080040704770B50446006864
:1012700001694FF00005C943890715D4C168C94306
:10128000890711D4E91E0161012020772068806957
:101290008007204602D0FFF7E7FF04E000F098F84F
:1012A000204600F096F8257720680169C943490770
:1012B00017D4C168C943490713D46FF00401016111
:1012C000022020772068806910F4407F204602D0F9
:1012D000FFF7CAFF04E000F07BF8204600F079F841
:1012E000257720680169C943090716D4C168C94335
:1012F000090712D46FF008010161042020772068EB
:10130000C0698007204602D0FFF7AEFF04E000F07E
:101310005FF8204600F05DF8257720680169C94331
:10132000C90617D4C168C943C90613D46FF01001A8
:101330000161082020772068C06910F4407F2046B2
:1013400002D0FFF791FF04E000F042F8204600F0E1
:1013500040F8257720680169C943C90708D1C168E9
:10136000C943C90704D1891E0161204600F032F843
:1013700020680169C943090609D4C168C94309063F
:1013800005D46FF0800101612046FFF710FF20684F
:101390000169C943490609D4C168C943490605D44E
:1013A0006FF040010161204600F01BF820680169E0
:1013B000C94389060BD4C168C943890607D46FF0B5
:1013C000200101612046BDE87040FFF7F1BE70BD0D
:1013D000704770470068B0F1804F01D1FFF7CAB87D
:1013E00070477047FEE700002DE9F04385B0002408
:1013F0001D480094019402940394816941F0040112
:101400008161816901F004010491816941F0080161
:1014100081618069DFF8548000F0080040F63B45A8
:101420000490002229464046FEF7A6FFDFF84090D0
:101430004FF40047002239464846FEF79DFF0095CD
:10144000022601250396CDE9015469464046FEF780
:10145000A3FE00970396CDE9015469464846FEF77E
:101460009BFE05B0BDE8F08300100240000C014077
:10147000000801400948084901600021416081607D
:10148000C160016141618161C1610162416281624A
:101490000A21C162FFF7AABB00300140740000209E
:1014A000FEE770477047F8B5044640684FF4827312
:1014B000984217D1A0684FF48065B0F5004F01D075
:1014C000A8420FD12068066826F0400606606068D2
:1014D000984207D1A068A84204D100920B4600228E
:1014E000012103E000920B4600228021204600F0FB
:1014F00019F8002804D0606D40F0200060650320DA
:10150000F8BD38B50B46009204460022802100F059
:1015100009F8002804D0606D40F0200060650320C9
:1015200038BD00002DE9F8431E4691468846044622
:10153000089DFEF727FF401B351AFEF723FF0746DD
:1015400025480068C0F3CB30684338E0701C37D0C2
:10155000FEF718FFC01BA84203D215B1009860B374
:101560002CE02068416821F0E00141606068B0F53E
:10157000827F0BD1A068B0F5004F02D0B0F5806F2C
:1015800004D12068016821F040010160A06AB0F533
:10159000005F09D12068016821F4005101602068D2
:1015A000016841F400510160012084F851000020DD
:1015B00084F850000320BDE8F8830025401E009009
:1015C0002068816838EA010004D000214945BDD176
:1015D0000020F0E70121F9E71C0000207047704768
:1015E00010B590B028216846FEF7A5FD14210AA881
:1015F000FEF7A1FD0220009001200490102000249D
:10160000059007946846FFF761F90F20CDE90A04B9
:101610000C940D9400210AA80E94FFF75BF810B00B
:1016200010BD70470148FFF720BE0000CC0000202D
:10163000F0B50268164B174C174D4FF08047984293
:1016400005D0B84203D0A04201D0A84203D122F075
:1016500070064A683243984205D0B84203D0A0428F
:1016600001D0A84203D122F44074CA6822434C69D5
:1016700022F08002224302608A68C2620A688262A3
:10168000984201D10969016301214161F0BD000067
:10169000002C01400004004000080040FEE709075C
:1016A000090E002804DB00F1E02080F800147047E8
:1016B00000F00F0000F1E02080F8141D704702E0F8
:1016C00008C8121F08C1002AFAD1704770470020CD
:1016D00001E001C1121F002AFBD17047FEF752FF43
:1016E000FFF77EFFFFF780FE454844494FF48042F4
:1016F00001604449416000218160C0E903124161F9
:101700008161C1610162FEF743FEFFF7B3FE3E4D0A
:101710003E4C4FF0FF363D49394833460122091D02
:101720005430FFF7F3FA207966282FD015DC5528BE
:1017300051D06528EFD13248334601223449543024
:10174000FFF791FB012202212846FEF715FEA06853
:10175000FEF710FD0022022114E0692829D06A2832
:10176000D9D127483346012229495430FFF77BFB62
:10177000012220212846FEF7FFFDA068FEF7FAFCB3
:10178000002220212846FEF7F7FDC4E720491C4827
:1017900033460122491C5430FFF765FB01221146F4
:1017A0002846FEF7E9FDA068FEF7E4FC00220121CF
:1017B000E8E713483346012215495430FFF753FB3D
:1017C000012210212846FEF7D7FDA068FEF7D2FCC3
:1017D00000221021D6E70D490948334604220C3176
:1017E0005430FFF793FA09480C30017821704178A2
:1017F00061708178A170C078E0708CE7005400407F
:1018000020000020A0860100000C01400000002004
:101810001418000895960000000000000000010266
:101820000304060708090000000001020304000089
:10183000501800080000002020000000BE1600081C
:101840007018000820000020F8040000CE160008E0
:101850000A0C0D0E00000000050000000000000052
:101860000100000010000000000000000024F4004F
:04000005080000ED02
:00000001FF
