:020000040800F2
:10000000C004002005010008E31200080D120008DA
:10001000E112000871010008DD1400080000000072
:100020000000000000000000000000001D14000897
:100030007301000800000000E51200081F1400080A
:100040001F0100081F0100081F0100081F01000810
:100050001F0100081F0100081F0100081F01000800
:100060001F0100081F0100081F0100081F010008F0
:100070001F0100081F0100081F0100081F010008E0
:100080001F0100081F0100081F0100081F010008D0
:100090001F0100081F0100081F0100081F010008C0
:1000A0001F0100081F0100081F0100081F010008B0
:1000B000651400081F0100081F0100081F01000847
:1000C0001F0100081F0100081F0100081F01000890
:1000D0001F0100081F0100081F0100081F01000880
:1000E0001F0100081F0100081F010008DFF810D0E1
:1000F00000F02CF80048004731150008AFF30080ED
:10010000C00400200648804706480047FEE7FEE797
:10011000FEE7FEE7FEE7FEE7FEE7FEE7FEE7FEE7B7
:1001200063140008ED000008D2B201E000F8012BD2
:10013000491EFBD270470022F6E710B513460A4667
:1001400004461946FFF7F0FF204610BD064C074D48
:1001500006E0E06840F0010394E807009847103497
:10016000AC42F6D3FFF7C6FF501600087016000821
:10017000FEE7704770B5044600F008F90546601CBC
:1001800002D004480078044400F000F9401BA0426B
:10019000FAD370BD100000202DE9F84FDFF8B891B8
:1001A000002409F1040A0AF1040B23460F270BF17E
:1001B000040EC9E00125A5402A40AA427DD1674E20
:1001C000D1F804C0ACEB0608B44532D014DCBCF165
:1001D000030F3AD009DCBCF1000F2AD0BCF1010FAB
:1001E0001CD0BCF1020F31D11DE0BCF1110F17D0B2
:1001F000BCF1120F2AD119E0B8F5881F19D006DC1E
:10020000B8F5803F15D0B8F5801F1FD111E0B8F5C3
:10021000001F0ED0B8F5041F18D10AE0CB6815E016
:10022000CB681B1D12E0CB6808330FE0CB680C33A2
:100230000CE08B682BB1012B4FF0080303D0456114
:1002400004E0042302E0056100E00023FF2A01D856
:10025000064601E000F104064FEA840501D9A5F144
:100260002005D6F8008007FA05FC28EA0C0803FAF6
:1002700005F548EA0508C6F800804D68ED0062D52E
:10028000374DAE6946F00106AE61AD6924F0030654
:1002900005F001050095334D06EB050CDCF8085020
:1002A000A607360F07FA06F825EA0805DFF8B88032
:1002B000404503D14FF0000817E044E0DFF8AC8080
:1002C000404502D14FF001080FE0DFF8A48040451F
:1002D00002D14FF0020808E0DFF89880404502D1D3
:1002E0004FF0030801E04FF0040808FA06F848EA66
:1002F0000508CCF808804D68D9F80060ED034D463C
:1003000001D5164300E096432E604D68DAF8006090
:10031000AD03554601D5164300E096432E604D6867
:10032000DBF80060ED025D4601D5164300E0964320
:100330002E604D68DEF80060AD02754601D51643AB
:1003400000E096432E60641C0D682A46E5407FF469
:1003500031AFBDE8F88F000000040140000011102B
:10036000001002400000014000080140000C014064
:1003700000100140001401408068084000D00120B6
:1003800070470AB1016170470904FBE701488068C2
:100390007047000010000020024881680278114474
:1003A0008160704710000020074810B5016841F0D7
:1003B00010010160032000F08DF8002000F006F825
:1003C00000F03CF8002010BD0020024000B50146BE
:1003D00087B000221C2000F05DF81C2000F04CF8D3
:1003E0001348C16941F00101C161C06905A900F06C
:1003F00001000690684600F015F900F033F90D4948
:100400004FF08042B0FBF1F10B48491E02604160A1
:1004100040F2E7320021C0E90321816000F0DDFDF8
:1004200010B1012007B000BD034800F005FEF9E758
:100430000010024040420F00780000200C4808B530
:10044000816941F001018161816901F0010100913F
:10045000C16941F08051C161C06900F080500090D5
:100460000448416821F0E06141F00071416008BD3D
:100470000010024000000140002809DB00F01F02CC
:10048000012191404009800000F1E020C0F80011F6
:1004900070470000F0B40E4B1B680C46C3F30223F8
:1004A000C3F10705042D00D90425191D072901D220
:1004B000002300E0DB1E012606FA05F1491E21405B
:1004C00099409E40761E16403143F0BC01F007B8BB
:1004D0000CED00E0064900F0070208684FF6FF0344
:1004E000184040EA0220034A1043086070470000A9
:1004F0000CED00E00000FA052DE9F0470F4605007D
:1005000061D0434E306800F00700B84209D230682D
:1005100020F0070038433060306800F00700B84230
:1005200051D128683B4C810712D5400703D560683C
:1005300040F4E06060602878000703D5606840F40C
:10054000605060606068A96820F0F0000843606057
:100550002878C00728D06868012810D021680228B0
:1005600010D0890700292EDA616821F003010143C8
:100570006160FFF70BFF804641F288390DE021688A
:100580008903EFE78901EDE7FFF700FFA0EB080122
:10059000494502D90320BDE8F0876068696800F02A
:1005A0000C00B0EB810FEFD1306800F00700B842CB
:1005B0000BD9306820F0070038433060306800F015
:1005C0000700B84201D00120E5E72878400705D5AB
:1005D0006068E96820F4E0600843606028780007FC
:1005E00006D56068296920F4605040EAC100606067
:1005F00000F048F86168084AC1F30311515CC84033
:100600000649086006480068FFF7E0FE0020C2E7E0
:100610000020024000100240361600081C00002096
:10062000140000200F2202600C4A536803F00303F9
:100630004360536803F0F0038360536803F4E0639E
:10064000C36052684FF4E06303EAD20202610448D7
:10065000006800F0070008607047000000100240CA
:10066000002002400448054900684968044AC1F373
:100670000221515CC84070471C000020001002405D
:100680004616000812A185B00FC98DE80F0014A00E
:10069000144A006804905168134801F00C03042BBD
:1006A00010D0082B0ED1C1F38343C9031DF80300FA
:1006B0000AD5516804AAC1F34041515C0A4A50432B
:1006C000B0FBF1F005B0704708494843FAE7000075
:1006D00002030405060708090A0B0C0D0E0F101083
:1006E000010200000010024000127A0000093D00E3
:1006F0002DE9F84F040070D02078C04DC00749D0D4
:100700006868C0F38100012807D06868C0F38100E1
:10071000022809D16868C00306D52868800339D546
:1007200060680028E7D035E06068B0F5803F0BD006
:1007300010B1B0F5A02F11D0286820F480302860C7
:10074000286820F4802002E0286840F48030286087
:10075000606890B1FFF71AFE06460AE0286840F488
:1007600080202860F0E700BFFFF710FE801B6428A0
:1007700073D828688003F7D50CE0FFF707FE06461C
:1007800005E000BFFFF702FE801B6428F0D8286850
:100790008003F7D420789A4E80074FF001094FF07C
:1007A000000839D5686810F00C0F07D06868C0F3EE
:1007B0008100022809D16868C00306D42868800730
:1007C00014D52069012808D110E02069B0B1C6F81D
:1007D0000090FFF7DBFD074605E00AE1FFF7D6FDD5
:1007E000C01B0228C4D828688007F7D5286861692B
:1007F00020F0F80040EAC10028600DE0C6F8008053
:10080000FFF7C4FD074604E0FFF7C0FDC01B022848
:1008100023D828688007F7D4207800072CD579489A
:10082000A169D9B1C0F80090FFF7B0FD074604E018
:10083000FFF7ACFDC01B02280FD8686A8007F7D508
:1008400071484FF4FA510068B0FBF1F0009000BF1E
:100850000098411E0091FAD20EE080E0C0F80080BE
:10086000FFF794FD074604E0FFF790FDC01B022848
:1008700075D8686A8007F7D42078400760D5E869A2
:100880000027C00008D4E86940F08050E861E869BA
:10089000012700F0805000905C480168C90513D41E
:1008A0000168834641F480710160FFF76FFD824665
:1008B00006E000BFFFF76AFDA0EB0A0064284ED8EF
:1008C000DBF80000C005F5D5E06801280AD008B1C2
:1008D000052813D0286A20F001002862286A20F039
:1008E000040002E0286A40F001002862E06841F25A
:1008F000883B98B1FFF74AFD82460BE0286A40F03A
:1009000004002862EEE700BFFFF740FDA0EB0A01FC
:1009100059455AD8286A8007F6D50CE0FFF736FD0E
:10092000824605E0FFF732FDA0EB0A0159454CD89D
:10093000286A8007F6D41FB1E86920F08050E8618A
:10094000E06988B36968C1F38101022944D00228B3
:10095000C6F8608004D0FFF719FD044638E034E0A3
:10096000FFF714FD074604E0FFF710FDC01B022847
:100970002BD828688001F7D4206AB0F5803F05D1D4
:100980006868A16820F4003008436860D4E9080171
:100990000843696821F4741108436860C6F86090E0
:1009A000FFF7F4FC044606E025E000BFFFF7EEFC8D
:1009B000001B022809D828688001F7D51BE000BF7A
:1009C000FFF7E4FC001B022802D90320BDE8F88FE2
:1009D00028688001F4D40EE00128F7D06868226A04
:1009E00000F48031914204D1616A00F470108842B1
:1009F00001D00120EAE70020E8E7000000100240F3
:100A000000004242800442421C000020007000406E
:100A100070B5040009D0606A002540B125616561A8
:100A2000A56294F8510040B10CE0012070BD6068EF
:100A3000B0F5827FF4D0E561F2E784F850502046AB
:100A400000F040F8022084F851002068016821F08D
:100A500040010160A088218900F4827001F4044102
:100A60000843A18901F400610843217C01F00201DF
:100A70000843217D01F001010843218B01F400713D
:100A80000843217F01F03801084394F8201001F059
:100A900080010843218D01F400510843216808605A
:100AA000A069042101EA1040216848602068C169FA
:100AB00021F40061C1616565012084F851000020C6
:100AC00070BD000030B585B00024009401940294FC
:100AD000039400681449884223D11448816941F481
:100AE00080518161816901F480510491816941F0F3
:100AF0000401816180690E4D00F004000490A02083
:100B00000090022001900320039069462846FFF7D9
:100B100043FB4020CDE90004694628460294FFF7D4
:100B20003BFB05B030BD000000300140001002402A
:100B3000000801402DE9F84F04464068002598461A
:100B400016460F464FF0040BB0F5827F01D1A06826
:100B500088B194F85000012818D0012084F8500082
:100B6000FFF714FC814694F851004FF0000A012869
:100B70000ED0022582E084F851B013460A46204682
:100B8000CDF8008000F036F9BDE8F88F0220FBE7D1
:100B9000002F72D0002E70D084F851B0C4F854A049
:100BA000A763A687E687C4F830A0A4F834A0A4F809
:100BB00036A0C4F840A0C4F844A0A068B0F5004F27
:100BC00009D12068016821F04001016020680168B6
:100BD00021F48041016020680168490603D401685E
:100BE00041F040010160E068D8B139E020688168D7
:100BF000C90709D0007BA16B0870A06B401CA063E3
:100C0000E08F401EE0870CE0FFF7C0FBA0EB09017E
:100C1000414503D3B8F1FF3F03D036E0B8F1000FF0
:100C200033D0E08F0028E1D11DE020688168C9073A
:100C300009D0C068A16B0880A06B801CA063E08F06
:100C4000401EE0870CE0FFF7A1FBA0EB0901414546
:100C500003D3B8F1FF3F03D017E0B8F1000F14D071
:100C6000E08F0028E1D14A464146204600F03BFB98
:100C700008B120206065606D00B10125012084F875
:100C8000510084F850A028467EE70325F6E72DE9B9
:100C9000F84F044690F8500000271D461646894636
:100CA00001280DD04FF0010B84F850B0FFF76EFB18
:100CB000804694F85100BA46012804D0022793E0F8
:100CC0000220BDE8F88FB9F1000F73D0002E71D06B
:100CD000032084F85100C4F854A0C4F83090A686CC
:100CE000E686C4F838A0A4F83CA0A4F83EA0C4F856
:100CF00044A0C4F840A0A068B0F5004F09D1206816
:100D0000016821F0400101602068016841F48041E0
:100D1000016020680168490603D4016841F0400180
:100D20000160E068B0F5006F606803D030B3012E59
:100D300024D041E008B1012E1CD1206B216800882D
:100D4000C86006E020688168890709D5216B098899
:100D5000C160206B801C2063E08E401EE08609E0AD
:100D6000FFF714FBA0EB0800A84202D3681C01D0D7
:100D700031E07DB3E08E0028E4D120E0206B2168D3
:100D80000078087306E020688168890709D5216B1F
:100D900009780173206B401C2063E08E401EE086C2
:100DA0000AE0FFF7F3FAA0EB0800A84203D3681C9F
:100DB00002D010E017E06DB1E08E0028E3D142468A
:100DC0002946204600F0BDFA08B120206065A068E1
:100DD00018B106E0FFE7032706E02068C1688068D5
:100DE0000090606D00B1012784F851B084F850A0E4
:100DF000384666E72DE9F84F044690F85000002782
:100E00000A9E1D4692468B464FF0010901280ED0DE
:100E1000012084F85000FFF7B9FA804694F8510099
:100E2000616801280CD0B1F5827F07D102E0022071
:100E3000BDE8F88FA16809B9042801D00227C2E0F3
:100E4000BBF1000F27D0BAF1000F24D01DB394F8E6
:100E50005100042802D0052084F85100002060656C
:100E6000C4F838A0E587A587C4F830B0E586A58624
:100E70002064606420680168490603D4016841F079
:100E800040010160E068B0F5006F606805D0E8B32C
:100E9000012D46D07FE0012795E008B1012D39D121
:100EA000206B21680088C860206B801C2063E08E66
:100EB000401EE0862EE02068816889070FD5E18E0C
:100EC00069B1B9F1010F0AD1216B0988C160206BAA
:100ED000801C2063E08E401EE0864FF000092068F1
:100EE0008168C9070CD0E18F51B1C068A16B08803F
:100EF000A06B801CA063E08F401EE0874FF00109CB
:100F0000FFF744FAA0EB0800B04200E009E001D38B
:100F1000701C50D1E08E0028CDD1E08F0028CAD1BE
:100F20003FE0206B216800780873206B401C206331
:100F3000E08E401EE0862EE02068816889070FD58C
:100F4000E18E69B1B9F1010F0AD1216B0978017302
:100F5000206B401C2063E08E401EE0864FF00009AD
:100F600020688168C9070CD0E18F51B1C068A16BBE
:100F70000870A06B401CA063E08F401EE0874FF01C
:100F80000109FFF703FAA0EB0800B04202D3701C7E
:100F900001D010E07EB1E08E0028CDD1E08F002896
:100FA000CAD142463146204600F0CBF928B101278C
:100FB0002020606507E0032705E0A06818B92068D5
:100FC000C16880680090012084F85100002084F8F6
:100FD000500038462CE77047704710B5040003D026
:100FE00094F83D0010B107E0012010BD002084F806
:100FF0003C00204600F01EF8022084F83D00211D30
:10100000206800F035FA012084F8460084F83E009C
:1010100084F83F0084F8400084F8410084F84200DE
:1010200084F8430084F8440084F8450084F83D00C7
:10103000002010BD7047000090F83D10012901D03C
:1010400001207047022180F83D100168CA6842F013
:101050000102CA6000680B49884208D0B0F1804F95
:1010600005D00949884202D00849884204D18168E4
:1010700001F00701062903D0016841F00101016078
:1010800000207047002C0140000400400008004090
:10109000704770B50446006801694FF00005C94308
:1010A000890715D4C168C943890711D4E91E0161B4
:1010B00001202077206880698007204602D0FFF752
:1010C000E7FF04E000F098F8204600F096F8257756
:1010D00020680169C943490717D4C168C943490752
:1010E00013D46FF004010161022020772068806929
:1010F00010F4407F204602D0FFF7CAFF04E000F062
:101100007BF8204600F079F8257720680169C9430B
:10111000090716D4C168C943090712D46FF0080142
:101120000161042020772068C0698007204602D032
:10113000FFF7AEFF04E000F05FF8204600F05DF836
:10114000257720680169C943C90617D4C168C94316
:10115000C90613D46FF010010161082020772068C0
:10116000C06910F4407F204602D0FFF791FF04E0F1
:1011700000F042F8204600F040F825772068016929
:10118000C943C90708D1C168C943C90704D1891E29
:101190000161204600F032F820680169C943090660
:1011A00009D4C168C943090605D46FF08001016103
:1011B0002046FFF710FF20680169C943490609D49A
:1011C000C168C943490605D46FF04001016120465A
:1011D00000F01BF820680169C94389060BD4C16877
:1011E000C943890607D46FF0200101612046BDE89C
:1011F0007040FFF7F1BE70BD704770470068B0F1F6
:10120000804F01D1FFF7C8B870477047FEE7000074
:101210002DE9F04186B00024204800940194029406
:101220000394816941F010018161816901F010012D
:101230000491816941F0040181618069184F00F0D7
:1012400004004FF400550490002229463846FFF769
:1012500098F8DFF85080002210214046FFF791F8FF
:101260000095022601250396CDE9015469463846CA
:10127000FEF792FF08208DE8310069464046FEF7F0
:101280008BFF1020CDE90005CDE9024669464046B6
:10129000FEF782FF06B0BDE8F081000000100240BA
:1012A00000100140000801400C480B494FF4007247
:1012B00001604FF48271416000218160C160016171
:1012C000C0E905121022C0E90721416281620A21AA
:1012D000C162FFF79DBB00000030014020000020EC
:1012E000FEE770477047F8B5044640684FF48273D4
:1012F000984217D1A0684FF48065B0F5004F01D037
:10130000A8420FD12068066826F040060660606893
:10131000984207D1A068A84204D100920B4600224F
:10132000012103E000920B4600228021204600F0BC
:1013300019F8002804D0606D40F02000606503209B
:10134000F8BD38B50B46009204460022802100F01B
:1013500009F8002804D0606D40F02000606503208B
:1013600038BD00002DE9F8431E46914688460446E4
:10137000089DFFF70BF8401B351AFFF707F80746E3
:1013800025480068C0F3CB30684338E0701C37D084
:10139000FEF7FCFFC01BA84203D215B1009860B352
:1013A0002CE02068416821F0E00141606068B0F500
:1013B000827F0BD1A068B0F5004F02D0B0F5806FEE
:1013C00004D12068016821F040010160A06AB0F5F5
:1013D000005F09D12068016821F400510160206894
:1013E000016841F400510160012084F8510000209F
:1013F00084F850000320BDE8F8830025401E0090CB
:101400002068816838EA010004D000214945BDD137
:101410000020F0E70121F9E71C0000207047704729
:1014200010B590B028216846FEF785FE14210AA861
:10143000FEF781FE0220009001200490102000247D
:10144000059007946846FFF753F90F20CDE90A0489
:101450000C940D9400210AA80E94FFF74DF810B0DB
:1014600010BD70470148FFF714BE0000780000204F
:10147000F0B50268164B174C174D4FF08047984255
:1014800005D0B84203D0A04201D0A84203D122F037
:1014900070064A683243984205D0B84203D0A04251
:1014A00001D0A84203D122F44074CA6822434C6997
:1014B00022F08002224302608A68C2620A68826265
:1014C000984201D10969016301214161F0BD000029
:1014D000002C01400004004000080040FEE709071E
:1014E000090E002804DB00F1E02080F800147047AA
:1014F00000F00F0000F1E02080F8141D704702E0BA
:1015000008C8121F08C1002AFAD17047704700208E
:1015100001E001C1121F002AFBD170470068020ED2
:101520000A70020C4A70020A8A70C8707047000084
:1015300086B069463A48FFF7F1FF394801A9001D16
:10154000FFF7ECFF364802A90830FFF7E7FF344801
:1015500003A90C30FFF7E2FFFEF726FFFFF760FF5D
:10156000FFF756FEFFF7A0FE2E4C01221021204669
:10157000FEF707FF0A20FEF7FDFD08212046FEF7D3
:10158000FBFE0028F9D1284E4FF4005500222946D1
:101590003046FEF7F6FE002210212046FEF7F1FE4F
:1015A0000A23012221492248FFF771FB0A23042262
:1015B00069461F48FFF76BFB0A23042201A91C4858
:1015C000FFF765FB0A23042202A91948FFF75FFB16
:1015D0000A23042203A91648FFF759FB0122102110
:1015E0002046FEF7CEFE002210212046FEF7C9FE5F
:1015F0000E490A230122491C0D48FFF748FB0A2324
:10160000042204A90A48FFF795FA01221021204676
:10161000FEF7B7FE012229463046FEF7B2FEACE7E0
:1016200000000020000801400010014034160008AE
:10163000200000205595000000000000000001027D
:10164000030406070809000000000102030400006B
:10165000701600080000002020000000FE140008A2
:101660009016000820000020A00400000E150008BD
:101670000000803F0000004000004040000080402B
:101680000100000010000000000000000024F40031
:04000005080000ED02
:00000001FF
